{
  "_format": "hh3-artifact-1",
  "contractName": "ERC721RES4",
  "sourceName": "contracts/RES4new.sol",
  "abi": [
    {
      "inputs": [],
      "stateMutability": "nonpayable",
      "type": "constructor"
    },
    {
      "anonymous": false,
      "inputs": [
        {
          "indexed": true,
          "internalType": "address",
          "name": "owner",
          "type": "address"
        },
        {
          "indexed": true,
          "internalType": "address",
          "name": "spender",
          "type": "address"
        },
        {
          "indexed": true,
          "internalType": "uint256",
          "name": "id",
          "type": "uint256"
        }
      ],
      "name": "Approval",
      "type": "event"
    },
    {
      "anonymous": false,
      "inputs": [
        {
          "indexed": true,
          "internalType": "address",
          "name": "owner",
          "type": "address"
        },
        {
          "indexed": true,
          "internalType": "address",
          "name": "operator",
          "type": "address"
        },
        {
          "indexed": false,
          "internalType": "bool",
          "name": "approved",
          "type": "bool"
        }
      ],
      "name": "ApprovalForAll",
      "type": "event"
    },
    {
      "anonymous": false,
      "inputs": [
        {
          "indexed": true,
          "internalType": "address",
          "name": "from",
          "type": "address"
        },
        {
          "indexed": true,
          "internalType": "address",
          "name": "to",
          "type": "address"
        },
        {
          "indexed": true,
          "internalType": "uint256",
          "name": "id",
          "type": "uint256"
        }
      ],
      "name": "Transfer",
      "type": "event"
    },
    {
      "inputs": [
        {
          "internalType": "uint256",
          "name": "price",
          "type": "uint256"
        },
        {
          "internalType": "address",
          "name": "to",
          "type": "address"
        }
      ],
      "name": "addAsset",
      "outputs": [],
      "stateMutability": "nonpayable",
      "type": "function"
    },
    {
      "inputs": [
        {
          "internalType": "uint256",
          "name": "assetId",
          "type": "uint256"
        },
        {
          "internalType": "uint256",
          "name": "value",
          "type": "uint256"
        }
      ],
      "name": "appreciate",
      "outputs": [],
      "stateMutability": "nonpayable",
      "type": "function"
    },
    {
      "inputs": [
        {
          "internalType": "address",
          "name": "spender",
          "type": "address"
        },
        {
          "internalType": "uint256",
          "name": "id",
          "type": "uint256"
        }
      ],
      "name": "approve",
      "outputs": [],
      "stateMutability": "nonpayable",
      "type": "function"
    },
    {
      "inputs": [
        {
          "internalType": "uint256",
          "name": "",
          "type": "uint256"
        }
      ],
      "name": "assetMap",
      "outputs": [
        {
          "internalType": "uint256",
          "name": "assetId",
          "type": "uint256"
        },
        {
          "internalType": "uint256",
          "name": "price",
          "type": "uint256"
        }
      ],
      "stateMutability": "view",
      "type": "function"
    },
    {
      "inputs": [],
      "name": "assetsCount",
      "outputs": [
        {
          "internalType": "uint256",
          "name": "",
          "type": "uint256"
        }
      ],
      "stateMutability": "view",
      "type": "function"
    },
    {
      "inputs": [
        {
          "internalType": "address",
          "name": "owner",
          "type": "address"
        }
      ],
      "name": "balanceOf",
      "outputs": [
        {
          "internalType": "uint256",
          "name": "",
          "type": "uint256"
        }
      ],
      "stateMutability": "view",
      "type": "function"
    },
    {
      "inputs": [
        {
          "internalType": "uint256",
          "name": "assetId",
          "type": "uint256"
        },
        {
          "internalType": "uint256",
          "name": "value",
          "type": "uint256"
        }
      ],
      "name": "build",
      "outputs": [],
      "stateMutability": "payable",
      "type": "function"
    },
    {
      "inputs": [
        {
          "internalType": "uint256",
          "name": "id",
          "type": "uint256"
        }
      ],
      "name": "clearApproval",
      "outputs": [],
      "stateMutability": "nonpayable",
      "type": "function"
    },
    {
      "inputs": [
        {
          "internalType": "uint256",
          "name": "assetId",
          "type": "uint256"
        },
        {
          "internalType": "uint256",
          "name": "value",
          "type": "uint256"
        }
      ],
      "name": "depreciate",
      "outputs": [],
      "stateMutability": "nonpayable",
      "type": "function"
    },
    {
      "inputs": [
        {
          "internalType": "uint256",
          "name": "id",
          "type": "uint256"
        }
      ],
      "name": "getApproved",
      "outputs": [
        {
          "internalType": "address",
          "name": "",
          "type": "address"
        }
      ],
      "stateMutability": "view",
      "type": "function"
    },
    {
      "inputs": [
        {
          "internalType": "address",
          "name": "",
          "type": "address"
        },
        {
          "internalType": "address",
          "name": "",
          "type": "address"
        }
      ],
      "name": "isApprovedForAll",
      "outputs": [
        {
          "internalType": "bool",
          "name": "",
          "type": "bool"
        }
      ],
      "stateMutability": "view",
      "type": "function"
    },
    {
      "inputs": [
        {
          "internalType": "uint256",
          "name": "id",
          "type": "uint256"
        }
      ],
      "name": "ownerOf",
      "outputs": [
        {
          "internalType": "address",
          "name": "owner",
          "type": "address"
        }
      ],
      "stateMutability": "view",
      "type": "function"
    },
    {
      "inputs": [
        {
          "internalType": "address",
          "name": "from",
          "type": "address"
        },
        {
          "internalType": "address",
          "name": "to",
          "type": "address"
        },
        {
          "internalType": "uint256",
          "name": "id",
          "type": "uint256"
        }
      ],
      "name": "safeTransferFrom",
      "outputs": [],
      "stateMutability": "nonpayable",
      "type": "function"
    },
    {
      "inputs": [
        {
          "internalType": "address",
          "name": "from",
          "type": "address"
        },
        {
          "internalType": "address",
          "name": "to",
          "type": "address"
        },
        {
          "internalType": "uint256",
          "name": "id",
          "type": "uint256"
        },
        {
          "internalType": "bytes",
          "name": "data",
          "type": "bytes"
        }
      ],
      "name": "safeTransferFrom",
      "outputs": [],
      "stateMutability": "nonpayable",
      "type": "function"
    },
    {
      "inputs": [
        {
          "internalType": "address",
          "name": "operator",
          "type": "address"
        },
        {
          "internalType": "bool",
          "name": "approved",
          "type": "bool"
        }
      ],
      "name": "setApprovalForAll",
      "outputs": [],
      "stateMutability": "nonpayable",
      "type": "function"
    },
    {
      "inputs": [],
      "name": "supervisor",
      "outputs": [
        {
          "internalType": "address",
          "name": "",
          "type": "address"
        }
      ],
      "stateMutability": "view",
      "type": "function"
    },
    {
      "inputs": [
        {
          "internalType": "bytes4",
          "name": "interfaceId",
          "type": "bytes4"
        }
      ],
      "name": "supportsInterface",
      "outputs": [
        {
          "internalType": "bool",
          "name": "",
          "type": "bool"
        }
      ],
      "stateMutability": "pure",
      "type": "function"
    },
    {
      "inputs": [
        {
          "internalType": "address",
          "name": "from",
          "type": "address"
        },
        {
          "internalType": "address",
          "name": "to",
          "type": "address"
        },
        {
          "internalType": "uint256",
          "name": "id",
          "type": "uint256"
        }
      ],
      "name": "transferFrom",
      "outputs": [],
      "stateMutability": "nonpayable",
      "type": "function"
    }
  ],
  "bytecode": "0x6080604052348015600e575f5ffd5b505f80546001600160a01b0319163317905561117c8061002d5f395ff3fe608060405260043610610105575f3560e01c806356e4b68b116100925780639f980f91116100625780639f980f91146102f4578063a22cb46514610313578063b88d4fde14610332578063cd9df19014610351578063e985e9c514610366575f5ffd5b806356e4b68b1461026b5780636352211e1461028957806370a08231146102a85780637fdd5403146102d5575f5ffd5b806323b872dd116100d857806323b872dd146101dc578063271acaf3146101fb5780632b34af511461020e57806342842e0e1461022d57806351c8c3f11461024c575f5ffd5b806301ffc9a714610109578063081812fc1461013d578063095ea7b314610174578063129f900814610195575b5f5ffd5b348015610114575f5ffd5b50610128610123366004610e15565b61039f565b60405190151581526020015b60405180910390f35b348015610148575f5ffd5b5061015c610157366004610e37565b6103d5565b6040516001600160a01b039091168152602001610134565b34801561017f575f5ffd5b5061019361018e366004610e64565b61042c565b005b3480156101a0575f5ffd5b506101c76101af366004610e37565b600160208190525f9182526040909120805491015482565b60408051928352602083019190915201610134565b3480156101e7575f5ffd5b506101936101f6366004610e8c565b6104ea565b610193610209366004610ec6565b61067d565b348015610219575f5ffd5b50610193610228366004610ec6565b61073d565b348015610238575f5ffd5b50610193610247366004610e8c565b610784565b348015610257575f5ffd5b50610193610266366004610ee6565b610878565b348015610276575f5ffd5b505f5461015c906001600160a01b031681565b348015610294575f5ffd5b5061015c6102a3366004610e37565b610911565b3480156102b3575f5ffd5b506102c76102c2366004610f10565b61094a565b604051908152602001610134565b3480156102e0575f5ffd5b506101936102ef366004610e37565b6109b3565b3480156102ff575f5ffd5b5061019361030e366004610ec6565b610a90565b34801561031e575f5ffd5b5061019361032d366004610f29565b610b1b565b34801561033d575f5ffd5b5061019361034c366004610f62565b610b86565b34801561035c575f5ffd5b506102c760025481565b348015610371575f5ffd5b50610128610380366004610ff7565b600660209081525f928352604080842090915290825290205460ff1681565b5f6001600160e01b031982166380ac58cd60e01b14806103cf57506001600160e01b031982166301ffc9a760e01b145b92915050565b5f818152600360205260408120546001600160a01b03166104115760405162461bcd60e51b81526004016104089061101f565b60405180910390fd5b505f908152600560205260409020546001600160a01b031690565b5f818152600360205260409020546001600160a01b03163381148061047357506001600160a01b0381165f90815260066020908152604080832033845290915290205460ff165b61048f5760405162461bcd60e51b81526004016104089061104c565b5f8281526005602052604080822080546001600160a01b0319166001600160a01b0387811691821790925591518593918516917f8c5be1e5ebec7d5bd14f71427d1e84f3dd0314c0f7b2291e5b200ac8c7c3b92591a4505050565b5f818152600360205260409020546001600160a01b038481169116146105425760405162461bcd60e51b815260206004820152600d60248201526c333937b690109e9037bbb732b960991b6044820152606401610408565b6001600160a01b0382166105985760405162461bcd60e51b815260206004820152601860248201527f7472616e7366657220746f207a65726f206164647265737300000000000000006044820152606401610408565b6105a3833383610c6b565b6105bf5760405162461bcd60e51b81526004016104089061104c565b6001600160a01b0383165f9081526004602052604081208054916105e283611088565b90915550506001600160a01b0382165f90815260046020526040812080549161060a8361109d565b90915550505f81815260036020908152604080832080546001600160a01b038088166001600160a01b031992831681179093556005909452828520805490911690559051849391928716917fddf252ad1be2c89b69c2b068fc378daa952ba7f163c4a11628f55a4df523b3ef91a4505050565b5f828152600360205260409020546001600160a01b031633146106d45760405162461bcd60e51b815260206004820152600f60248201526e2737ba103a37b5b2b71037bbb732b960891b6044820152606401610408565b5f82815260016020818152604092839020835180850185528154815292015482820190815283518085019094528251845251919291908201906107189085906110b5565b90525f9384526001602081815260409095208251815591909401519301929092555050565b5f546001600160a01b031633146106d45760405162461bcd60e51b815260206004820152600b60248201526a2737ba30a6b0b730b3b2b960a91b6044820152606401610408565b61078f8383836104ea565b6001600160a01b0382163b15806108345750604051630a85bd0160e11b8082523360048301526001600160a01b03858116602484015260448301849052608060648401525f608484015290919084169063150b7a029060a4016020604051808303815f875af1158015610804573d5f5f3e3d5ffd5b505050506040513d601f19601f8201168201806040525081019061082891906110c8565b6001600160e01b031916145b6108735760405162461bcd60e51b815260206004820152601060248201526f1d5b9cd85999481c9958da5c1a595b9d60821b6044820152606401610408565b505050565b5f546001600160a01b031633146108bf5760405162461bcd60e51b815260206004820152600b60248201526a2737ba20a6b0b730b3b2b960a91b6044820152606401610408565b6040805180820182526002805480835260208084018781525f928352600191829052949091209251835592519190920155546108fc908290610cdb565b60025461090a9060016110b5565b6002555050565b5f818152600360205260409020546001600160a01b0316806109455760405162461bcd60e51b81526004016104089061101f565b919050565b5f6001600160a01b0382166109985760405162461bcd60e51b81526020600482015260146024820152736f776e6572203d207a65726f206164647265737360601b6044820152606401610408565b506001600160a01b03165f9081526004602052604090205490565b5f818152600360205260409020546001600160a01b0316806109e75760405162461bcd60e51b81526004016104089061101f565b336001600160a01b0382161480610a2057506001600160a01b0381165f90815260066020908152604080832033845290915290205460ff165b610a3c5760405162461bcd60e51b81526004016104089061104c565b5f8281526005602052604080822080546001600160a01b0319169055518391906001600160a01b038416907f8c5be1e5ebec7d5bd14f71427d1e84f3dd0314c0f7b2291e5b200ac8c7c3b925908390a45050565b5f546001600160a01b03163314610ad75760405162461bcd60e51b815260206004820152600b60248201526a2737ba30a6b0b730b3b2b960a91b6044820152606401610408565b5f82815260016020818152604092839020835180850185528154815292015482820190815283518085019094528251845251919291908201906107189085906110e3565b335f8181526006602090815260408083206001600160a01b03871680855290835292819020805460ff191686151590811790915590519081529192917f17307eab39ab6107e8899845ad3d59bd9653f200f220920489ca2b5937696c31910160405180910390a35050565b610b918585856104ea565b6001600160a01b0384163b1580610c255750604051630a85bd0160e11b808252906001600160a01b0386169063150b7a0290610bd99033908a908990899089906004016110f6565b6020604051808303815f875af1158015610bf5573d5f5f3e3d5ffd5b505050506040513d601f19601f82011682018060405250810190610c1991906110c8565b6001600160e01b031916145b610c645760405162461bcd60e51b815260206004820152601060248201526f1d5b9cd85999481c9958da5c1a595b9d60821b6044820152606401610408565b5050505050565b5f836001600160a01b0316836001600160a01b03161480610cb057506001600160a01b038085165f9081526006602090815260408083209387168352929052205460ff165b80610cd357505f828152600560205260409020546001600160a01b038481169116145b949350505050565b6001600160a01b038216610d285760405162461bcd60e51b81526020600482015260146024820152736d696e7420746f207a65726f206164647265737360601b6044820152606401610408565b5f818152600360205260409020546001600160a01b031615610d7d5760405162461bcd60e51b815260206004820152600e60248201526d185b1c9958591e481b5a5b9d195960921b6044820152606401610408565b6001600160a01b0382165f908152600460205260408120805491610da08361109d565b90915550505f8181526003602052604080822080546001600160a01b0319166001600160a01b03861690811790915590518392907fddf252ad1be2c89b69c2b068fc378daa952ba7f163c4a11628f55a4df523b3ef908290a45050565b6001600160e01b031981168114610e12575f5ffd5b50565b5f60208284031215610e25575f5ffd5b8135610e3081610dfd565b9392505050565b5f60208284031215610e47575f5ffd5b5035919050565b80356001600160a01b0381168114610945575f5ffd5b5f5f60408385031215610e75575f5ffd5b610e7e83610e4e565b946020939093013593505050565b5f5f5f60608486031215610e9e575f5ffd5b610ea784610e4e565b9250610eb560208501610e4e565b929592945050506040919091013590565b5f5f60408385031215610ed7575f5ffd5b50508035926020909101359150565b5f5f60408385031215610ef7575f5ffd5b82359150610f0760208401610e4e565b90509250929050565b5f60208284031215610f20575f5ffd5b610e3082610e4e565b5f5f60408385031215610f3a575f5ffd5b610f4383610e4e565b915060208301358015158114610f57575f5ffd5b809150509250929050565b5f5f5f5f5f60808688031215610f76575f5ffd5b610f7f86610e4e565b9450610f8d60208701610e4e565b935060408601359250606086013567ffffffffffffffff811115610faf575f5ffd5b8601601f81018813610fbf575f5ffd5b803567ffffffffffffffff811115610fd5575f5ffd5b886020828401011115610fe6575f5ffd5b959894975092955050506020019190565b5f5f60408385031215611008575f5ffd5b61101183610e4e565b9150610f0760208401610e4e565b6020808252601390820152721d1bdad95b88191bd95cdb89dd08195e1a5cdd606a1b604082015260600190565b6020808252600e908201526d1b9bdd08185d5d1a1bdc9a5e995960921b604082015260600190565b634e487b7160e01b5f52601160045260245ffd5b5f8161109657611096611074565b505f190190565b5f600182016110ae576110ae611074565b5060010190565b808201808211156103cf576103cf611074565b5f602082840312156110d8575f5ffd5b8151610e3081610dfd565b818103818111156103cf576103cf611074565b6001600160a01b03868116825285166020820152604081018490526080606082018190528101829052818360a08301375f81830160a090810191909152601f909201601f1916010194935050505056fea264697066735822122027a4d41fb8b6b4c55cae5f445a86e917e8f41c3384f9e8e5f9bd51e8014ecc2b64736f6c634300081c0033",
  "linkReferences": {},
  "deployedLinkReferences": {},
  "immutableReferences": {},
  "inputSourceName": "project/contracts/RES4new.sol",
  "buildInfoId": "solc-0_8_28-202dc3f2ef43294847178db1f371221bd06efcef"
}