{
  "_format": "hh3-artifact-1",
  "contractName": "Counter",
  "sourceName": "contracts/Counter.sol",
  "abi": [
    {
      "inputs": [
        {
          "internalType": "uint256",
          "name": "n",
          "type": "uint256"
        }
      ],
      "name": "decrement",
      "outputs": [],
      "stateMutability": "nonpayable",
      "type": "function"
    },
    {
      "inputs": [],
      "name": "get",
      "outputs": [
        {
          "internalType": "uint256",
          "name": "",
          "type": "uint256"
        }
      ],
      "stateMutability": "view",
      "type": "function"
    },
    {
      "inputs": [
        {
          "internalType": "uint256",
          "name": "n",
          "type": "uint256"
        }
      ],
      "name": "increment",
      "outputs": [],
      "stateMutability": "nonpayable",
      "type": "function"
    },
    {
      "inputs": [
        {
          "internalType": "uint256",
          "name": "x",
          "type": "uint256"
        }
      ],
      "name": "initialize",
      "outputs": [],
      "stateMutability": "nonpayable",
      "type": "function"
    }
  ],
  "bytecode": "6080604052348015600e575f5ffd5b5061024e8061001c5f395ff3fe608060405234801561000f575f5ffd5b506004361061004a575f3560e01c80633a9ebefd1461004e5780636d4ce63c1461006a5780637cf5dab014610088578063fe4b84df146100a4575b5f5ffd5b61006860048036038101906100639190610132565b6100c0565b005b6100726100d5565b60405161007f919061016c565b60405180910390f35b6100a2600480360381019061009d9190610132565b6100dd565b005b6100be60048036038101906100b99190610132565b6100f2565b005b805f546100cd91906101b2565b5f8190555050565b5f5f54905090565b805f546100ea91906101e5565b5f8190555050565b805f8190555050565b5f5ffd5b5f819050919050565b610111816100ff565b811461011b575f5ffd5b50565b5f8135905061012c81610108565b92915050565b5f60208284031215610147576101466100fb565b5b5f6101548482850161011e565b91505092915050565b610166816100ff565b82525050565b5f60208201905061017f5f83018461015d565b92915050565b7f4e487b71000000000000000000000000000000000000000000000000000000005f52601160045260245ffd5b5f6101bc826100ff565b91506101c7836100ff565b92508282039050818111156101df576101de610185565b5b92915050565b5f6101ef826100ff565b91506101fa836100ff565b925082820190508082111561021257610211610185565b5b9291505056fea2646970667358221220febfe2fce0eb0c280215f145dc08d33ad3a1346bab95e6bd136ab0123808103d64736f6c634300081e0033",
  "linkReferences": {},
  "deployedLinkReferences": {},
  "immutableReferences": {},
  "inputSourceName": "project/contracts/Counter.sol",
  "buildInfoId": "solc-0_8_28-f51ae87ae795dce4b7c7ed5c8b1e794e7ad8d02a"
}