{
  "_format": "hh3-artifact-1",
  "contractName": "Ballot",
  "sourceName": "contracts/ballot.sol",
  "abi": [
    {
      "inputs": [
        {
          "internalType": "uint256",
          "name": "numProposals",
          "type": "uint256"
        }
      ],
      "stateMutability": "nonpayable",
      "type": "constructor"
    },
    {
      "inputs": [
        {
          "internalType": "address",
          "name": "voter",
          "type": "address"
        }
      ],
      "name": "register",
      "outputs": [],
      "stateMutability": "nonpayable",
      "type": "function"
    },
    {
      "inputs": [],
      "name": "reqWinner",
      "outputs": [
        {
          "internalType": "uint256",
          "name": "winningProposal",
          "type": "uint256"
        }
      ],
      "stateMutability": "view",
      "type": "function"
    },
    {
      "inputs": [
        {
          "internalType": "uint256",
          "name": "toProposal",
          "type": "uint256"
        }
      ],
      "name": "vote",
      "outputs": [],
      "stateMutability": "nonpayable",
      "type": "function"
    }
  ],
  "bytecode": "0x6080604052348015600e575f5ffd5b50604051610428380380610428833981016040819052602b9160a5565b5f80546001600160a01b0319163390811782558152600160205260408120600290555b81811015609f5760408051602081019091525f80825260028054600181810183559190925291517f405787fa12a823e0f2b7631cc41b3ba8828b3321ca811111fa75cd3aa3bb5ace9091015501604e565b505060bb565b5f6020828403121560b4575f5ffd5b5051919050565b610360806100c85f395ff3fe608060405234801561000f575f5ffd5b506004361061003f575f3560e01c80630121b93f146100435780634420e48614610058578063508b30c91461006b575b5f5ffd5b6100566100513660046102ad565b610085565b005b6100566100663660046102c4565b6101c7565b610073610203565b60405190815260200160405180910390f35b335f908152600160205260409020546100de5760405162461bcd60e51b81526020600482015260166024820152752737ba1030902932b3b4b9ba32b932b2102b37ba32b960511b60448201526064015b60405180910390fd5b335f9081526001602081905260409091209081015460ff16156101335760405162461bcd60e51b815260206004820152600d60248201526c105b1c9958591e481d9bdd1959609a1b60448201526064016100d5565b60025482106101775760405162461bcd60e51b815260206004820152601060248201526f125b9d985b1a59081c1c9bdc1bdcd85b60821b60448201526064016100d5565b6001818101805460ff19169091179055600280820183905581548154909190849081106101a6576101a66102f1565b905f5260205f20015f015f8282546101be9190610305565b90915550505050565b5f546001600160a01b031633146101dc575f5ffd5b6001600160a01b03165f90815260016020819052604090912081815501805460ff19169055565b5f80805b600254811015610262578160028281548110610225576102256102f1565b905f5260205f20015f0154111561025a5760028181548110610249576102496102f1565b905f5260205f20015f015491508092505b600101610207565b5060038110156102a95760405162461bcd60e51b8152602060048201526012602482015271496e73756666696369656e7420766f74657360701b60448201526064016100d5565b5090565b5f602082840312156102bd575f5ffd5b5035919050565b5f602082840312156102d4575f5ffd5b81356001600160a01b03811681146102ea575f5ffd5b9392505050565b634e487b7160e01b5f52603260045260245ffd5b8082018082111561032457634e487b7160e01b5f52601160045260245ffd5b9291505056fea26469706673582212200434d53a417746e886ce8e041ba942ab7a854cabc4bc428d1cfa1272976bba4d64736f6c634300081c0033",
  "linkReferences": {},
  "deployedLinkReferences": {},
  "immutableReferences": {},
  "inputSourceName": "project/contracts/ballot.sol",
  "buildInfoId": "solc-0_8_28-d79441b25dd67f2f735e1f80befab03f5caa81bc"
}