{
  "_format": "hh-sol-artifact-1",
  "contractName": "BlindAuction",
  "sourceName": "contracts/blindAuction.sol",
  "abi": [
    {
      "inputs": [],
      "stateMutability": "nonpayable",
      "type": "constructor"
    },
    {
      "anonymous": false,
      "inputs": [],
      "name": "AuctionDone",
      "type": "event"
    },
    {
      "anonymous": false,
      "inputs": [
        {
          "indexed": false,
          "internalType": "address",
          "name": "winner",
          "type": "address"
        },
        {
          "indexed": false,
          "internalType": "uint256",
          "name": "highestBid",
          "type": "uint256"
        }
      ],
      "name": "AuctionEnded",
      "type": "event"
    },
    {
      "anonymous": false,
      "inputs": [],
      "name": "AuctionInit",
      "type": "event"
    },
    {
      "anonymous": false,
      "inputs": [],
      "name": "BiddingStarted",
      "type": "event"
    },
    {
      "anonymous": false,
      "inputs": [],
      "name": "RevealStarted",
      "type": "event"
    },
    {
      "inputs": [],
      "name": "advancePhase",
      "outputs": [],
      "stateMutability": "nonpayable",
      "type": "function"
    },
    {
      "inputs": [],
      "name": "auctionEnd",
      "outputs": [],
      "stateMutability": "nonpayable",
      "type": "function"
    },
    {
      "inputs": [],
      "name": "beneficiary",
      "outputs": [
        {
          "internalType": "address payable",
          "name": "",
          "type": "address"
        }
      ],
      "stateMutability": "view",
      "type": "function"
    },
    {
      "inputs": [
        {
          "internalType": "bytes32",
          "name": "blindBid",
          "type": "bytes32"
        }
      ],
      "name": "bid",
      "outputs": [],
      "stateMutability": "payable",
      "type": "function"
    },
    {
      "inputs": [
        {
          "internalType": "address",
          "name": "",
          "type": "address"
        }
      ],
      "name": "bids",
      "outputs": [
        {
          "internalType": "bytes32",
          "name": "blindedBid",
          "type": "bytes32"
        },
        {
          "internalType": "uint256",
          "name": "deposit",
          "type": "uint256"
        }
      ],
      "stateMutability": "view",
      "type": "function"
    },
    {
      "inputs": [],
      "name": "closeAuction",
      "outputs": [],
      "stateMutability": "nonpayable",
      "type": "function"
    },
    {
      "inputs": [],
      "name": "currentPhase",
      "outputs": [
        {
          "internalType": "enum BlindAuction.Phase",
          "name": "",
          "type": "uint8"
        }
      ],
      "stateMutability": "view",
      "type": "function"
    },
    {
      "inputs": [],
      "name": "highestBid",
      "outputs": [
        {
          "internalType": "uint256",
          "name": "",
          "type": "uint256"
        }
      ],
      "stateMutability": "view",
      "type": "function"
    },
    {
      "inputs": [],
      "name": "highestBidder",
      "outputs": [
        {
          "internalType": "address",
          "name": "",
          "type": "address"
        }
      ],
      "stateMutability": "view",
      "type": "function"
    },
    {
      "inputs": [
        {
          "internalType": "uint256",
          "name": "value",
          "type": "uint256"
        },
        {
          "internalType": "bytes32",
          "name": "secret",
          "type": "bytes32"
        }
      ],
      "name": "reveal",
      "outputs": [],
      "stateMutability": "nonpayable",
      "type": "function"
    },
    {
      "inputs": [],
      "name": "withdraw",
      "outputs": [],
      "stateMutability": "nonpayable",
      "type": "function"
    }
  ],
  "bytecode": "0x608060405260006002556000600560006101000a81548160ff02191690836003811115602c57602b6081565b5b0217905550348015603c57600080fd5b50336000806101000a81548173ffffffffffffffffffffffffffffffffffffffff021916908373ffffffffffffffffffffffffffffffffffffffff16021790555060b0565b7f4e487b7100000000000000000000000000000000000000000000000000000000600052602160045260246000fd5b611355806100bf6000396000f3fe60806040526004361061009c5760003560e01c80634036778f116100645780634036778f1461013c57806362ea82db1461016557806391f90157146101a3578063957bb1e0146101ce578063be25a718146101ea578063d57bde79146102015761009c565b8063055ad42e146100a15780632a24f46c146100cc578063378252f2146100e357806338af3eed146100fa5780633ccfd60b14610125575b600080fd5b3480156100ad57600080fd5b506100b661022c565b6040516100c39190610da2565b60405180910390f35b3480156100d857600080fd5b506100e161023f565b005b3480156100ef57600080fd5b506100f8610417565b005b34801561010657600080fd5b5061010f610450565b60405161011c9190610dfe565b60405180910390f35b34801561013157600080fd5b5061013a610474565b005b34801561014857600080fd5b50610163600480360381019061015e9190610e8a565b610551565b005b34801561017157600080fd5b5061018c60048036038101906101879190610f08565b610791565b60405161019a929190610f53565b60405180910390f35b3480156101af57600080fd5b506101b86107b5565b6040516101c59190610f8b565b60405180910390f35b6101e860048036038101906101e39190610fa6565b6107db565b005b3480156101f657600080fd5b506101ff61094f565b005b34801561020d57600080fd5b50610216610bed565b6040516102239190610fd3565b60405180910390f35b600560009054906101000a900460ff1681565b600380600381111561025457610253610d2b565b5b600560009054906101000a900460ff16600381111561027657610275610d2b565b5b146102b6576040517f08c379a00000000000000000000000000000000000000000000000000000000081526004016102ad9061104b565b60405180910390fd5b60008054906101000a900473ffffffffffffffffffffffffffffffffffffffff1673ffffffffffffffffffffffffffffffffffffffff163373ffffffffffffffffffffffffffffffffffffffff1614610344576040517f08c379a000000000000000000000000000000000000000000000000000000000815260040161033b906110b7565b60405180910390fd5b60025447106103b75760008054906101000a900473ffffffffffffffffffffffffffffffffffffffff1673ffffffffffffffffffffffffffffffffffffffff166108fc6002549081150290604051600060405180830381858888f193505050501580156103b5573d6000803e3d6000fd5b505b7fdaec4582d5d9595688c8c98545fdd1c696d41c6aeaeb636737e84ed2f5c00eda600160009054906101000a900473ffffffffffffffffffffffffffffffffffffffff1660025460405161040c9291906110d7565b60405180910390a150565b60008054906101000a900473ffffffffffffffffffffffffffffffffffffffff1673ffffffffffffffffffffffffffffffffffffffff16ff5b60008054906101000a900473ffffffffffffffffffffffffffffffffffffffff1681565b6000600460003373ffffffffffffffffffffffffffffffffffffffff1673ffffffffffffffffffffffffffffffffffffffff168152602001908152602001600020549050600081111561054e576000600460003373ffffffffffffffffffffffffffffffffffffffff1673ffffffffffffffffffffffffffffffffffffffff168152602001908152602001600020819055503373ffffffffffffffffffffffffffffffffffffffff166108fc829081150290604051600060405180830381858888f1935050505015801561054c573d6000803e3d6000fd5b505b50565b600280600381111561056657610565610d2b565b5b600560009054906101000a900460ff16600381111561058857610587610d2b565b5b146105c8576040517f08c379a00000000000000000000000000000000000000000000000000000000081526004016105bf9061104b565b60405180910390fd5b60008054906101000a900473ffffffffffffffffffffffffffffffffffffffff1673ffffffffffffffffffffffffffffffffffffffff163373ffffffffffffffffffffffffffffffffffffffff1603610656576040517f08c379a000000000000000000000000000000000000000000000000000000000815260040161064d9061114c565b60405180910390fd5b600080600360003373ffffffffffffffffffffffffffffffffffffffff1673ffffffffffffffffffffffffffffffffffffffff168152602001908152602001600020905084846040516020016106ad9291906111ae565b60405160208183030381529060405280519060200120816000015403610743578060010154826106dd9190611209565b9150670de0b6b3a7640000856106f3919061123d565b8160010154106107425761071a33670de0b6b3a764000087610715919061123d565b610bf3565b1561074157670de0b6b3a764000085610733919061123d565b8261073e919061127f565b91505b5b5b3373ffffffffffffffffffffffffffffffffffffffff166108fc839081150290604051600060405180830381858888f19350505050158015610789573d6000803e3d6000fd5b505050505050565b60036020528060005260406000206000915090508060000154908060010154905082565b600160009054906101000a900473ffffffffffffffffffffffffffffffffffffffff1681565b60018060038111156107f0576107ef610d2b565b5b600560009054906101000a900460ff16600381111561081257610811610d2b565b5b14610852576040517f08c379a00000000000000000000000000000000000000000000000000000000081526004016108499061104b565b60405180910390fd5b60008054906101000a900473ffffffffffffffffffffffffffffffffffffffff1673ffffffffffffffffffffffffffffffffffffffff163373ffffffffffffffffffffffffffffffffffffffff16036108e0576040517f08c379a00000000000000000000000000000000000000000000000000000000081526004016108d7906112ff565b60405180910390fd5b604051806040016040528083815260200134815250600360003373ffffffffffffffffffffffffffffffffffffffff1673ffffffffffffffffffffffffffffffffffffffff16815260200190815260200160002060008201518160000155602082015181600101559050505050565b60008054906101000a900473ffffffffffffffffffffffffffffffffffffffff1673ffffffffffffffffffffffffffffffffffffffff163373ffffffffffffffffffffffffffffffffffffffff16146109dd576040517f08c379a00000000000000000000000000000000000000000000000000000000081526004016109d4906110b7565b60405180910390fd5b60006001600560009054906101000a900460ff166003811115610a0357610a02610d2b565b5b610a0d9190611209565b9050806003811115610a2257610a21610d2b565b5b600560006101000a81548160ff02191690836003811115610a4657610a45610d2b565b5b021790555060026003811115610a5f57610a5e610d2b565b5b600560009054906101000a900460ff166003811115610a8157610a80610d2b565b5b03610ab3577f3bcc93d35219aa0512d7c0d1ca10b0231f473e3d5f9396877d1b7215ee0ab3d560405160405180910390a15b60016003811115610ac757610ac6610d2b565b5b600560009054906101000a900460ff166003811115610ae957610ae8610d2b565b5b03610b1b577f02c124e22ee7da1c9905bbb317cf67658c1cc3ea1c0953b1633f85d0b5c281d960405160405180910390a15b60006003811115610b2f57610b2e610d2b565b5b600560009054906101000a900460ff166003811115610b5157610b50610d2b565b5b03610b83577f8ad2842071cb64589c8e006941bc20b615aae08a93530e211ca7c9639bd26d9760405160405180910390a15b600380811115610b9657610b95610d2b565b5b600560009054906101000a900460ff166003811115610bb857610bb7610d2b565b5b03610bea577fb6ab20c3fcd3b8e8f2a99b872d1ef0c670576ebce084e55c73b3479efacfd41f60405160405180910390a15b50565b60025481565b60006002548211610c075760009050610d25565b600073ffffffffffffffffffffffffffffffffffffffff16600160009054906101000a900473ffffffffffffffffffffffffffffffffffffffff1673ffffffffffffffffffffffffffffffffffffffff1614610cd85760025460046000600160009054906101000a900473ffffffffffffffffffffffffffffffffffffffff1673ffffffffffffffffffffffffffffffffffffffff1673ffffffffffffffffffffffffffffffffffffffff1681526020019081526020016000206000828254610cd09190611209565b925050819055505b8160028190555082600160006101000a81548173ffffffffffffffffffffffffffffffffffffffff021916908373ffffffffffffffffffffffffffffffffffffffff160217905550600190505b92915050565b7f4e487b7100000000000000000000000000000000000000000000000000000000600052602160045260246000fd5b60048110610d6b57610d6a610d2b565b5b50565b6000819050610d7c82610d5a565b919050565b6000610d8c82610d6e565b9050919050565b610d9c81610d81565b82525050565b6000602082019050610db76000830184610d93565b92915050565b600073ffffffffffffffffffffffffffffffffffffffff82169050919050565b6000610de882610dbd565b9050919050565b610df881610ddd565b82525050565b6000602082019050610e136000830184610def565b92915050565b600080fd5b6000819050919050565b610e3181610e1e565b8114610e3c57600080fd5b50565b600081359050610e4e81610e28565b92915050565b6000819050919050565b610e6781610e54565b8114610e7257600080fd5b50565b600081359050610e8481610e5e565b92915050565b60008060408385031215610ea157610ea0610e19565b5b6000610eaf85828601610e3f565b9250506020610ec085828601610e75565b9150509250929050565b6000610ed582610dbd565b9050919050565b610ee581610eca565b8114610ef057600080fd5b50565b600081359050610f0281610edc565b92915050565b600060208284031215610f1e57610f1d610e19565b5b6000610f2c84828501610ef3565b91505092915050565b610f3e81610e54565b82525050565b610f4d81610e1e565b82525050565b6000604082019050610f686000830185610f35565b610f756020830184610f44565b9392505050565b610f8581610eca565b82525050565b6000602082019050610fa06000830184610f7c565b92915050565b600060208284031215610fbc57610fbb610e19565b5b6000610fca84828501610e75565b91505092915050565b6000602082019050610fe86000830184610f44565b92915050565b600082825260208201905092915050565b7f70686173654572726f7200000000000000000000000000000000000000000000600082015250565b6000611035600a83610fee565b915061104082610fff565b602082019050919050565b6000602082019050818103600083015261106481611028565b9050919050565b7f6f6e6c7942656e65666963696172790000000000000000000000000000000000600082015250565b60006110a1600f83610fee565b91506110ac8261106b565b602082019050919050565b600060208201905081810360008301526110d081611094565b9050919050565b60006040820190506110ec6000830185610f7c565b6110f96020830184610f44565b9392505050565b7f62656e656669636961727952657665616c000000000000000000000000000000600082015250565b6000611136601183610fee565b915061114182611100565b602082019050919050565b6000602082019050818103600083015261116581611129565b9050919050565b6000819050919050565b61118761118282610e1e565b61116c565b82525050565b6000819050919050565b6111a86111a382610e54565b61118d565b82525050565b60006111ba8285611176565b6020820191506111ca8284611197565b6020820191508190509392505050565b7f4e487b7100000000000000000000000000000000000000000000000000000000600052601160045260246000fd5b600061121482610e1e565b915061121f83610e1e565b9250828201905080821115611237576112366111da565b5b92915050565b600061124882610e1e565b915061125383610e1e565b925082820261126181610e1e565b91508282048414831517611278576112776111da565b5b5092915050565b600061128a82610e1e565b915061129583610e1e565b92508282039050818111156112ad576112ac6111da565b5b92915050565b7f62656e6566696369617279426964000000000000000000000000000000000000600082015250565b60006112e9600e83610fee565b91506112f4826112b3565b602082019050919050565b60006020820190508181036000830152611318816112dc565b905091905056fea26469706673582212202371b0388d537079933fa005302ae3fd0d8a5a0420595573d75e83c51c02237964736f6c634300081c0033",
  "linkReferences": {},
  "deployedLinkReferences": {}
}